{
  "contractName": "TodoList",
  "abi": [
    {
      "constant": true,
      "inputs": [],
      "name": "taskCount",
      "outputs": [
        {
          "name": "",
          "type": "uint256"
        }
      ],
      "payable": false,
      "stateMutability": "view",
      "type": "function",
      "signature": "0xb6cb58a5"
    }
  ],
  "bytecode": "0x608060405260008055348015601357600080fd5b50609e806100226000396000f3fe608060405260043610603f576000357c0100000000000000000000000000000000000000000000000000000000900463ffffffff168063b6cb58a5146044575b600080fd5b348015604f57600080fd5b506056606c565b6040518082815260200191505060405180910390f35b6000548156fea165627a7a723058201152d6f7f443e243054f2f573a3d3a4df818cd0928da05c39577db791d8ab4f40029",
  "source": "pragma solidity ^0.5.0;\n\ncontract TodoList {\n    //state variables can be declared with uint. State variables are written to the blockchain. They represent the state of the smart contract in the blockchain. The state of a contract will change evewry time this taskCount will change. tHE SCope of the variable depends to the whole smart contract\n    //create a way to read this value from the smart contract with keyword public. This provides a function that allows us to read the value taskCount from the TodoList\n    uint public taskCount = 0;\n}",
  "sourcePath": "/Users/ximeft29/Desktop/eth-todo-list/contracts/TodoList.sol",
  "compiler": {
    "name": "solc",
    "version": "0.5.0+commit.1d4f565a.Emscripten.clang"
  },
  "schemaVersion": "3.0.1",
  "updatedAt": "2021-07-28T19:57:10.417Z",
  "devdoc": {
    "methods": {}
  },
  "userdoc": {
    "methods": {}
  }
}